:100000000C9438000C9442000C9442000C94420072
:100010000C9442000C9442000C9442000C94420058
:100020000C9442000C9442000C9442000C94420048
:100030000C9442000C9442000C9442000C94420038
:100040000C9442000C9442000C9442000C94420028
:100050000C9442000C9442000C9442000C94420018
:100060000C9442000C9442000C9442000C94420008
:1000700011241FBECFEFD0E1DEBFCDBF0E946500CF
:100080000C9487000C94000011B812B814B815B87D
:1000900017B818B81AB81BB808952FEF2AB927B99E
:1000A0009BB988B921B962B987E984B98EE085B96D
:1000B00008952FEF2AB927B99BB988B921B962B938
:1000C00087E984B98EE085B908950E9444002FEF36
:1000D00089E698E1215080409040E1F700C000009F
:1000E00081E084B928982FEF80E792E0215080408A
:1000F0009040E1F700C00000289A2FEF80E792E0DF
:10010000215080409040E1F700C00000EBCFF89410
:02011000FFCF1F
:00000001FF
